:020000040800F2
:10000000C8070020C10100081B110008070F0008E5
:1000100019110008050300088319000800000000FA
:100020000000000000000000000000003918000877
:100030000703000800000000371800083B180008FC
:10004000DB010008DB010008DB010008DB01000820
:10005000DB010008DB010008DB010008DB01000810
:10006000DB010008DB010008DB010008DB01000800
:10007000DB010008DB010008DB010008DB010008F0
:10008000DB010008DB010008DB010008DB010008E0
:10009000DB010008DB010008DB010008DB010008D0
:1000A000DB010008DB010008DB010008DB010008C0
:1000B000A1180008DB010008DB010008DB010008D3
:1000C000DB010008DB010008DB010008DB010008A0
:1000D000DB010008DB010008DB010008DB01000890
:1000E000DB010008DB010008DB01000800F002F87A
:1000F00000F03CF80AA090E8000C82448344AAF186
:100100000107DA4501D100F031F8AFF2090EBAE883
:100110000F0013F0010F18BFFB1A43F0010318473B
:10012000642B0000842B0000103A24BF78C878C1EB
:10013000FAD8520724BF30C830C144BF04680C60ED
:10014000704700000023002400250026103A28BF35
:1001500078C1FBD8520728BF30C148BF0B60704739
:100160001FB500F062F81FBD10B510BD00F090F88B
:100170001146FFF7F5FF01F029FC00F0AEF803B4DB
:10018000FFF7F2FF03BC00F0B7F800000B49D1F80D
:1001900000C04A685CF8043B1068184442F8040B3D
:1001A0008C4528BFA1F1DC0C8A4228BFA1F1DC02FA
:1001B000C1F800C04A6020F0004070475C01002098
:1001C0000948804709480047FEE7FEE7FEE7FEE7EB
:1001D000FEE7FEE7FEE7FEE7FEE7FEE70448054927
:1001E000054A064B704700009D180008ED00000806
:1001F000C8010020C8070020C8030020C803002051
:100200000B4910B5A1F17C020A4CC2E93712372123
:1002100006E000EB104342F82130074B00FB03409F
:100220000B1EA1F10101F4DC10BD0120E8E7000084
:10023000FC000020E119D666CD0D01004FF0000250
:1002400000B5134694469646203922BFA0E80C50CC
:10025000A0E80C50B1F12001BFF4F7AF090728BFA7
:10026000A0E80C5048BF0CC05DF804EB890028BF23
:1002700040F8042B08BF704748BF20F8022B11F04C
:10028000804F18BF00F8012B7047704770477047C8
:10029000754600F02BF8AE4605006946534620F03F
:1002A0000700854618B020B5FFF798FFBDE820404D
:1002B0004FF000064FF000074FF000084FF0000B22
:1002C00021F00701AC46ACE8C009ACE8C009ACE8D5
:1002D000C009ACE8C0098D46704710B50446AFF3BD
:1002E00000802046BDE81040FFF749BF0048704736
:1002F000640100207047000001491820ABBEFEE7F2
:1003000026000200FEE77047002806D041F663028F
:100310001146491EFDD1401EFAD1704772B6FEE764
:1003200070B5044600F008F90546601C02D0044888
:100330000078044400F000F9401BA042FAD370BDDD
:10034000280000202DE9F84FDFF8B891002409F1CA
:10035000040A0AF1040B23460F270BF1040EC9E02F
:100360000125A5402A40AA427DD1674ED1F804C09C
:10037000ACEB0608B44532D014DCBCF1030F3AD024
:1003800009DCBCF1000F2AD0BCF1010F1CD0BCF17C
:10039000020F31D11DE0BCF1110F17D0BCF1120FCB
:1003A0002AD119E0B8F5881F19D006DCB8F5803FCE
:1003B00015D0B8F5801F1FD111E0B8F5001F0ED081
:1003C000B8F5041F18D10AE0CB6815E0CB681B1DF7
:1003D00012E0CB6808330FE0CB680C330CE08B687D
:1003E0002BB1012B4FF0080303D0456104E0042337
:1003F00002E0056100E00023FF2A01D8064601E083
:1004000000F104064FEA840501D9A5F12005D6F8CC
:10041000008007FA05FC28EA0C0803FA05F548EA0B
:100420000508C6F800804D68ED0062D5374DAE690D
:1004300046F00106AE61AD6924F0030605F0010542
:100440000095334D06EB050CDCF80850A607360F77
:1004500007FA06F825EA0805DFF8B880404503D119
:100460004FF0000817E044E0DFF8AC80404502D1CF
:100470004FF001080FE0DFF8A480404502D14FF0B3
:10048000020808E0DFF89880404502D14FF00308E9
:1004900001E04FF0040808FA06F848EA0508CCF82D
:1004A00008804D68D9F80060ED034D4601D516432C
:1004B00000E096432E604D68DAF80060AD035546C3
:1004C00001D5164300E096432E604D68DBF80060CE
:1004D000ED025D4601D5164300E096432E604D685F
:1004E000DEF80060AD02754601D5164300E0964384
:1004F0002E60641C0D682A46E5407FF431AFBDE8EC
:10050000F88F0000000401400000111000100240AC
:100510000000014000080140000C014000100140B3
:10052000001401408068084000D0012070470AB1E3
:10053000016170470904FBE70148806870470000CB
:1005400028000020024881680278114481607047C9
:1005500028000020074810B5016841F01001016033
:10056000032000F075F80F2000F006F800F024F8E2
:10057000002010BD0020024070B50D4D04464FF420
:100580007A712878B1FBF0F00A490968B1FBF0F004
:1005900000F0CCFA48B9102C07D200222146501E98
:1005A00000F036F800206C6070BD012070BD0000C6
:1005B00028000020340000200C4808B5816941F073
:1005C00001018161816901F001010091C16941F07E
:1005D0008051C161C06900F08050009004484168BA
:1005E00021F0E06141F00071416008BD001002405F
:1005F00000000140002809DB00F01F0201219140AA
:100600004009800000F1E020C0F8001170470000B0
:10061000F0B40E4B1B680C46C3F30223C3F107056D
:10062000042D00D90425191D072901D2002300E05B
:10063000DB1E012606FA05F1491E214099409E4025
:10064000761E16403143F0BC01F09CB90CED00E081
:10065000064900F0070208684FF6FF03184040EA19
:100660000220034A10430860704700000CED00E0D0
:100670000000FA052DE9F0470F46050061D0434E12
:10068000306800F00700B84209D2306820F0070057
:1006900038433060306800F00700B84251D1286814
:1006A0003B4C810712D5400703D5606840F4E060F9
:1006B00060602878000703D5606840F4605060608F
:1006C0006068A96820F0F000084360602878C007DF
:1006D00028D06868012810D02168022810D0890726
:1006E00000292EDA616821F0030101436160FFF700
:1006F00023FF804641F288390DE021688903EFE746
:100700008901EDE7FFF718FFA0EB0801494502D981
:100710000320BDE8F0876068696800F00C00B0EB6A
:10072000810FEFD1306800F00700B8420BD9306874
:1007300020F0070038433060306800F00700B8420E
:1007400001D00120E5E72878400705D56068E96811
:1007500020F4E060084360602878000706D56068F0
:10076000296920F4605040EAC100606000F018F888
:100770006168084AC1F30311515CC840064908602A
:1007800006480068FFF7F8FE0020C2E7002002409C
:1007900000100240712C0008340000202C000020C2
:1007A00012A185B00FC98DE80F0014A0144A00688B
:1007B00004905168134801F00C03042B10D0082B4F
:1007C0000ED1C1F38343C9031DF803000AD5516854
:1007D00004AAC1F34041515C0A4A5043B0FBF1F016
:1007E00005B0704708494843FAE7000002030405D2
:1007F000060708090A0B0C0D0E0F1010010200006D
:100800000010024000127A0000093D002DE9F84F67
:10081000040070D02078C04DC00749D06868C0F38C
:100820008100012807D06868C0F38100022809D13F
:100830006868C00306D52868800339D56068002839
:10084000E7D035E06068B0F5803F0BD010B1B0F56F
:10085000A02F11D0286820F480302860286820F468
:10086000802002E0286840F480302860606890B101
:10087000FFF762FE06460AE0286840F48020286000
:10088000F0E700BFFFF758FE801B642873D8286884
:100890008003F7D50CE0FFF74FFE064605E000BFEA
:1008A000FFF74AFE801B6428F0D828688003F7D43D
:1008B00020789A4E80074FF001094FF0000839D593
:1008C000686810F00C0F07D06868C0F38100022838
:1008D00009D16868C00306D42868800714D5206948
:1008E000012808D110E02069B0B1C6F80090FFF7E8
:1008F00023FE074605E00AE1FFF71EFEC01B0228A3
:10090000C4D828688007F7D52868616920F0F80006
:1009100040EAC10028600DE0C6F80080FFF70CFE39
:10092000074604E0FFF708FEC01B022823D828680A
:100930008007F7D4207800072CD57948A169D9B170
:10094000C0F80090FFF7F8FD074604E0FFF7F4FD5C
:10095000C01B02280FD8686A8007F7D571484FF48A
:10096000FA510068B0FBF1F0009000BF0098411E02
:100970000091FAD20EE080E0C0F80080FFF7DCFDC5
:10098000074604E0FFF7D8FDC01B022875D8686A47
:100990008007F7D42078400760D5E8690027C000B9
:1009A00008D4E86940F08050E861E869012700F068
:1009B000805000905C480168C90513D401688346E3
:1009C00041F480710160FFF7B7FD824606E000BF89
:1009D000FFF7B2FDA0EB0A0064284ED8DBF8000058
:1009E000C005F5D5E06801280AD008B1052813D064
:1009F000286A20F001002862286A20F0040002E042
:100A0000286A40F001002862E06841F2883B98B112
:100A1000FFF792FD82460BE0286A40F0040028624E
:100A2000EEE700BFFFF788FDA0EB0A0159455AD851
:100A3000286A8007F6D50CE0FFF77EFD824605E0C8
:100A4000FFF77AFDA0EB0A0159454CD8286A8007C8
:100A5000F6D41FB1E86920F08050E861E06988B3FE
:100A60006968C1F38101022944D00228C6F8608078
:100A700004D0FFF761FD044638E034E0FFF75CFD89
:100A8000074604E0FFF758FDC01B02282BD8286852
:100A90008001F7D4206AB0F5803F05D16868A1686D
:100AA00020F4003008436860D4E90801084369680D
:100AB00021F4741108436860C6F86090FFF73CFDAC
:100AC000044606E025E000BFFFF736FD001B0228C4
:100AD00009D828688001F7D51BE000BFFFF72CFD7F
:100AE000001B022802D90320BDE8F88F2868800186
:100AF000F4D40EE00128F7D06868226A00F480314F
:100B0000914204D1616A00F47010884201D0012042
:100B1000EAE70020E8E7000000100240000042423F
:100B200080044242340000200070004010B5401E96
:100B3000B0F1807F01D3012010BD4FF0E02460614F
:100B40000F21601700F01EFF0020A0610720206128
:100B5000002010BD7047704770B590F83C20012A06
:100B600026D0012480F83C40022280F83D20036812
:100B70005A689D6822F070060A6832435A600D4B2D
:100B800002689A4208D0B2F1804F05D00A4B9A42CF
:100B900002D00A4B9A4204D1496825F080031943D8
:100BA000916080F83D40002180F83C10084670BDFF
:100BB000022070BD002C01400004004000080040ED
:100BC00010B5040003D094F83D0010B107E00120F7
:100BD00010BD002084F83C00204600F01FF80220E1
:100BE00084F83D00211D206800F060FE012084F89B
:100BF000460084F83E0084F83F0084F8400084F802
:100C0000410084F8420084F8430084F8440084F8EA
:100C1000450084F83D00002010BD000008B50068C4
:100C2000B0F1804F12D10A48C16941F00101C161A0
:100C3000C069002200F00100009011461C20FFF75F
:100C4000E7FCBDE808401C20FFF7D4BC08BD00004D
:100C50000010024090F83D10012901D0012070479A
:100C6000022180F83D100168CA6842F00102CA60A2
:100C700000680B49884208D0B0F1804F05D009497F
:100C8000884202D00849884204D1816801F00701F6
:100C9000062903D0016841F001010160002070477E
:100CA000002C0140000400400008004070B50446DC
:100CB00090F83C00012817D0012584F83C50022010
:100CC00084F83D002068826822F0770222F47F4297
:100CD00082600868502830D00DDC20284DD005DC1B
:100CE00098B310283BD148E0022070BD302844D092
:100CF000402834D139E0602828D0702806D0B0F5DB
:100D0000805F2CD0B0F5005F29D10AE0CB68D1E933
:100D10000121206800F000FE2068816841F0770121
:100D200009E0CB68D1E90121206800F0F5FD2068D9
:100D3000816841F48041816011E0CA684968206897
:100D400000F0FCFD5021206807E016E0CA68496801
:100D5000206800F004FE6021206800F0E7FD84F8C0
:100D60003D50002084F83C0070BDCA684968206886
:100D700000F0E4FD40212068EFE7226801461046BC
:100D8000EBE7704770B50446006801694FF0000555
:100D9000C943890715D4C168C943890711D4E91E1D
:100DA000016101202077206880698007204602D0F9
:100DB000FFF7E7FF04E000F098F8204600F096F80F
:100DC000257720680169C943490717D4C168C94319
:100DD000490713D46FF004010161022020772068D5
:100DE000806910F4407F204602D0FFF7CAFF04E07C
:100DF00000F07BF8204600F079F82577206801693B
:100E0000C943090716D4C168C943090712D46FF052
:100E100008010161042020772068C069800720460E
:100E200002D0FFF7AEFF04E000F05FF8204600F0CC
:100E30005DF8257720680169C943C90617D4C168E0
:100E4000C943C90613D46FF010010161082020774F
:100E50002068C06910F4407F204602D0FFF791FF60
:100E600004E000F042F8204600F040F825772068C2
:100E70000169C943C90708D1C168C943C90704D179
:100E8000891E0161204600F033F820680169C943DA
:100E9000090609D4C168C943090605D46FF0800169
:100EA00001612046FFF756FE20680169C9434906E3
:100EB00009D4C168C943490605D46FF040010161F6
:100EC000204600F01FF820680169C94389060BD449
:100ED000C168C943890607D46FF02001016120462B
:100EE000BDE87040FFF737BE70BD70477047000027
:100EF0000068B0F1804F02D10149012008707047AD
:100F0000180000207047FEE710B50B4C01220821A5
:100F10002046FFF70CFB012210212046FFF707FBBC
:100F2000002210212046FFF702FB20460022BDE8E8
:100F300010400821FFF7FBBA000C014010B5094C26
:100F4000012208212046FFF7F2FA00221021204654
:100F5000FFF7EDFA20460122BDE810401021FFF70F
:100F6000E6BA0000000C014010B5064C0122082131
:100F70002046FFF7DCFA20460022BDE81040082199
:100F8000FFF7D5BA000C014070B5124E044600229E
:100F900008213046FFF7CBFA5FF0000504F080002F
:100FA000802815D0002210213046FFF7C0FA6006D5
:100FB000040E012208213046FFF7B9FA0022082169
:100FC0003046FFF7B4FA6D1CEDB2082DE6D370BDC4
:100FD0000122E8E7000C014010B50446FFF794FF3A
:100FE0007820FFF7D1FFFFF7BFFF0020FFF7CCFF0E
:100FF000FFF7BAFF2046FFF7C7FFFFF7B5FFBDE8D1
:101000001040FFF79BBF10B50446FFF77DFF782027
:10101000FFF7BAFFFFF7A8FF4020FFF7B5FFFFF784
:10102000A3FF2046FFF7B0FFFFF79EFFBDE810408B
:10103000FFF784BF70B586B000241C48009401946B
:1010400002940394816941F020018161816901F07A
:1010500020010491816941F008018161816901F0F9
:1010600008010491816941F0040181618069104E99
:1010700000F004000490002218213046FFF757FAD0
:101080000325CDE900540124694630460294FFF758
:1010900059F91820009001AA112082E83100694610
:1010A0003046FFF74FF906B070BD00000010024057
:1010B000000C014010B586B000241648009401943D
:1010C0000294039404944FF080410594C0E9001405
:1010D0004FF6FF71C0E9024104618461FFF770FDC2
:1010E00008B1FFF71BF94FF480500090694609489A
:1010F000FFF7DCFD08B1FFF711F9049404A90548D6
:101100000594FFF729FD002801D0FFF707F906B085
:1011100010BD000038000020FEE7FEE770B5002497
:10112000002104F1B00000F080FB0021084600F02F
:101130007CFB0021102000F078FB0025012100201D
:1011400000F073FB6D1CEDB2802DF7D3641CE4B28C
:10115000082CE5D370BD2DE9F04100260746344642
:101160002146002000F0B0FAFFF7CEFE7820FFF70E
:101170000BFFFFF7F9FE4020FFF706FFFFF7F4FE35
:101180000025B85D761CFFF7FFFEFFF7EDFE6D1C36
:10119000EDB2802DF5D3FFF7D1FE641CE4B2082C2C
:1011A000DED3BDE8F08100002DE9F0472A4D00278D
:1011B000102668684FF0050A1030002806DC5246F9
:1011C0000621002000F09AFC802068600024A846D8
:1011D000D8F80400002804DA4742A01DC1B200205C
:1011E00002E0A11DC9B2C0B200F06EFAFFF78CFE9A
:1011F0007820FFF7C9FEFFF7B7FE4020FFF7C4FED7
:10120000FFF7B2FEFDB2DFF854900EE0D8F804000C
:1012100028447F280BDC04FB065019F80000FFF778
:10122000B3FEFFF7A1FE6D1CEDB2B542EEDBFFF79A
:1012300085FE641CE4B2022CCAD3D8F804004446EC
:1012400030445246062100F059FC6168A1EB0A00C7
:101250006060BDE8F087000000000020A9270008BA
:101260002DE9F047274C03260025E06818271830A1
:1012700010F1030F09DC8020E060FEF787FF0321F7
:1012800090FBF1F201FB12002070E068002805DA03
:1012900045422078401CC1B2002003E02178C0B252
:1012A000491CC9B200F010FAFFF72EFE7820FFF7B4
:1012B0006BFEFFF759FE4020FFF766FEFFF754FE76
:1012C000A046DFF84490BC1910E000BFD8F80C002D
:1012D00028447F280CDCBD4202DA19F8050000E042
:1012E0000020FFF751FEFFF73FFE6D1CAC42EDDC26
:1012F000FFF724FED8F80C10891BC8F80C10BDE8C5
:10130000F087000000000020C125000838B5044621
:101310000848FFF720FF0C2307A20021462000F019
:1013200062FA0C200090032322460021642000F082
:1013300025FA38BD712800084245535400000000CA
:101340002DE9F041174E184F7078401C00F0010055
:1013500070700024A01DC1B2102000F0B5F9FFF795
:10136000D3FD7820FFF710FEFFF7FEFD4020FFF7CA
:101370000BFEFFF7F9FD0025717805EB041007EB74
:101380004111085CFFF700FEFFF7EEFD6D1CEDB2AA
:10139000102DF1D3FFF7D2FD641CE4B2022CD9D397
:1013A000BDE8F08100000020D92500082DE9FE43AA
:1013B00048A300270ECB8DE80E000823484E39467F
:1013C000012809D03046F578426990F902006C4650
:1013D00045B1012D10D018E07161F170B37000209B
:1013E000BDE8FE83235C401E1A4440B27261B070B7
:1013F00000280ADAB17008E0245C401C121B40B2DD
:101400007261B070082800D9B37070691F2804DBBE
:101410000120F0701F20706110E0002802DCF170E4
:1014200071610EE007280CDD0F2801DC012708E0C0
:10143000172801DC022704E01F2801DC032700E055
:101440000427DFF8A0800024C7F1050909EB040098
:10145000C1B2102000F038F9FFF756FD7820FFF7F1
:1014600093FDFFF781FD4020FFF78EFDFFF77CFD28
:101470005FF00005706905EB0411C21700EB5272B2
:1014800022F00702801A00EB400208EB0210405CD9
:10149000FFF77AFDFFF768FD6D1CEDB2102DE9D363
:1014A000FFF74CFD641CE4B2032CCFD3F07828B9CD
:1014B0001022C7F10801104600F020FBF078012847
:1014C00005D11022C7F10401104600F017FB706926
:1014D00086E700000101030304040506070000007D
:1014E00000000020192600082DE9F04100261E4FBB
:1014F000804602242146342000F0E6F8FFF704FD80
:101500007820FFF741FDFFF72FFD4020FFF73CFD5E
:10151000FFF72AFD0025B85D761CFFF735FDFFF7C4
:1015200023FD6D1CEDB2182DF5D3FFF707FD641CEC
:10153000E4B2052CDED3B8F1000F4FF010030BA27C
:101540004FF003014FF00A0004D000F04CF91023D3
:1015500008A203E000F047F9102308A2BDE8F0411B
:101560000321562000F03FB92928000847414D4586
:101570000000000050415353000000004F564552F8
:101580000000000070B506460024002104F1B00000
:1015900000F04BF90021084600F047F90021102027
:1015A00000F043F900250121304600F03EF96D1CA2
:1015B000EDB2802DF7D3641CE4B2082CE5D370BDE6
:1015C00010B51420FEF7A0FE0021AE2000F02DF98A
:1015D0000021084600F029F90021102000F025F92B
:1015E0000021402000F021F90021B02000F01DF979
:1015F0000021812000F019F90021FF2000F015F9E9
:101600000021A12000F011F90021A62000F00DF921
:101610000021A82000F009F900213F2000F005F981
:101620000021C82000F001F90021D32000F0FDF8CE
:101630000021084600F0F9F80021D52000F0F5F867
:101640000021802000F0F1F80021D82000F0EDF812
:101650000021052000F0E9F80021D92000F0E5F88C
:101660000021F12000F0E1F80021DA2000F0DDF89F
:101670000021122000F0D9F80021DB2000F0D5F87D
:101680000021302000F0D1F800218D2000F0CDF8AD
:101690000021142000F0C9F80021AF2000F0C5F8A7
:1016A0001420FEF731FEBDE810400020FFF76ABFAE
:1016B00010B505220621002000F020FA0149802003
:1016C000486010BD0000002010B50A460446002105
:1016D00002F1B00000F0A9F8102040EA1410002137
:1016E00000F0A3F804F00F00BDE81040002100F066
:1016F0009CB800002DE9F041203A00240D468046B8
:10170000D6B27F2803D900208D1C8046EDB2102B65
:10171000294610D0FFF7D8FF164906EB460001EB2B
:1017200040050121285D00F080F8641CE4B2062C1D
:10173000F7D3BDE8F081FFF7C7FF0F4F04EB0610AA
:101740000121385C00F071F8641CE4B2082CF5D378
:101750006D1CE9B24046FFF7B7FF002404EB06100A
:1017600038440121007A00F060F8641CE4B2082CCF
:10177000F4D3DEE7541B00087C1D00082DE9F05F60
:101780000026DDF828901D4692468B46804634465A
:101790004FEA590723E0281B401EC1B20A2000F07F
:1017A000D1F9BAFBF0F00A21B0FBF1F201FB120013
:1017B00026B9691E8C4201DA38B101263030C2B236
:1017C00007FB0480C0B24B4604E007FB0480C0B2B4
:1017D0004B4620225946FFF78DFF641CE4B2AC4211
:1017E000D9D3BDE8F09F2DE9F0470024994617466C
:1017F00088460546102B01D0062611E008260FE08A
:101800004B4641462846FFF775FFA819C5B2782D0B
:1018100004D908F10200002500F0FF08641CE4B2BE
:101820003A5D002AECD1BDE8F087C0B209B1FFF7FC
:10183000EABBFFF7D1BB70477047FEF783BE30B5F8
:101840008FB028216846FEF7F9FC14210AA8FEF79C
:10185000F5FC01210804CDE90010002402940225C2
:101860000491CDE907504FF4E01009906846FEF767
:10187000CDFF08B172B6FEE70F20CDE90A054FF49F
:101880008060CDE90C4002210AA80E94FEF7F2FE1A
:10189000002801D072B6FEE70FB030BD70470000DF
:1018A0000148FFF76FBA000038000020F0B5026869
:1018B000164B174C174D4FF08047984205D0B84251
:1018C00003D0A04201D0A84203D122F070064A689A
:1018D0003243984205D0B84203D0A04201D0A8427A
:1018E00003D122F44074CA6822434C6922F080027A
:1018F000224302608A68C2620A688262984201D109
:101900000969016301214161F0BD0000002C014023
:10191000000400400008004010B5846842EA032239
:1019200024F47F440A432243826010BD826822F07F
:1019300070020A4342F007018160704710B5036AE4
:10194000046A24F001040462846924F0F00444EA87
:10195000021423F00A020A438461026210BD10B52A
:10196000036A23F0100303628369046A23F470435B
:1019700043EA023224F0A00343EA011182610162CA
:1019800010BDFEE70907090E002804DB00F1E02086
:1019900080F80014704700F00F0000F1E02080F89C
:1019A000141D704710B5084C01212046FEF7BAFD02
:1019B00030B102212046FEF7B5FD18B1002010BD60
:1019C000022010BD012010BD000C014008B5FEF73B
:1019D000C1FDFFF734FFFFF72DFBFFF76BFB454819
:1019E000FFF738F9FFF7ECFD434CA068FFF78EFCDA
:1019F000FFF7D8FF0228FBD16420FEF791FCFFF728
:101A00008DFB01275FF00005FFF7CCFFC6B2022E69
:101A10000ED16770A570E5706560E560FFF748FE60
:101A20000120FFF7C3FCFFF779FB6420FEF778FC89
:101A30006078E8B3012E05D1A07818B9A77000200E
:101A4000FFF7B4FC2078A0B32570FFF767FBFFF722
:101A500007FCA07828B10020FFF7A8FC18B9A570F2
:101A600001E0FFF76DFCFFF79FFB1038102809D845
:101A7000A07838B96570E5700020FFF735FDFEF7F6
:101A80005BFDE06062681020521C626000900323DE
:101A900000216420FFF772FE6068B0F57A7F0AD3F8
:101AA0006570E7700120FFF71FFDFEF745FD01E0BF
:101AB00004E000E0E06060780028A5D1E06898B11B
:101AC0001EB1FEF739FDE0600BE0FEF735FDE16881
:101AD000401A40F6B831884203D3A068FFF716FCDD
:101AE000E560607800288FD1D4E9010188428BD964
:101AF000A06089E7380000201800002070B5054676
:101B00001646C9B2C0B2FFF7DFFDFFF7FDF9782036
:101B1000FFF73AFAFFF728FA4020FFF735FAFFF708
:101B200023FA002408E02819802807D80020FFF7AE
:101B30002BFAFFF719FA641CB442F4D3BDE87040E5
:101B4000FFF7FCB90246012000E05043491EC9B22C
:101B5000FBD270470000000000000000002F0000D2
:101B600000000700070000147F147F1400242A7F60
:101B70002A120062640813230036495522500000DF
:101B80000503000000001C224100000041221C004F
:101B90000014083E08140008083E0808000000A0D1
:101BA00060000008080808080000606000000020CD
:101BB00010080402003E5149453E0000427F4000AB
:101BC000004261514946002141454B310018141231
:101BD0007F10002745454539003C4A4949300001FE
:101BE0007109050300364949493600064949291E4D
:101BF00000003636000000005636000000081422AF
:101C000041000014141414140000412214080002AE
:101C10000151090600324959513E007C1211127CD3
:101C2000007F49494936003E41414122007F414100
:101C3000221C007F49494941007F09090901003EF2
:101C40004149497A007F0808087F0000417F410030
:101C5000002040413F01007F08142241007F4040A6
:101C60004040007F020C027F007F0408107F003E8E
:101C70004141413E007F09090906003E4151215E74
:101C8000007F091929460046494949310001017F71
:101C90000101003F4040403F001F2040201F003F07
:101CA0004038403F006314081463000708700807B9
:101CB00000615149454300007F41410000552A55CC
:101CC0002A55000041417F00000402010204004047
:101CD0004040404000000102040000205454547869
:101CE000007F484444380038444444200038444489
:101CF000487F00385454541800087E090102001827
:101D0000A4A4A47C007F080404780000447D400063
:101D1000004080847D00007F102844000000417F47
:101D20004000007C04180478007C08040478003823
:101D30004444443800FC242424180018242418FCAB
:101D4000007C0804040800485454542000043F4414
:101D50004020003C4040207C001C2040201C003CD7
:101D60004030403C004428102844001CA0A0A07C27
:101D7000004464544C44141414141414000000005F
:101D8000000000000000000000000000000000F85B
:101D900000000000000000333000000000100C06BE
:101DA000100C0600000000000000000040C0784059
:101DB000C0784000043F04043F040400007088FC25
:101DC00008300000001820FF211E0000F008F0007D
:101DD000E018000000211C031E211E0000F00888EE
:101DE000700000001E2123241927211010160E0058
:101DF000000000000000000000000000000000E003
:101E00001804020000000007182040000002041817
:101E1000E00000000040201807000000404080F073
:101E2000804040000202010F01020200000000F0A9
:101E3000000000000101011F01010100000000007D
:101E40000000000080B070000000000000000000F2
:101E5000000000000001010101010101000000007B
:101E60000000000000303000000000000000000012
:101E700080601804006018060100000000E01008EF
:101E80000810E000000F102020100F00001010F8C4
:101E9000000000000020203F202000000070080803
:101EA0000888700000302824222130000030088883
:101EB000884830000018202020110E000000C020AB
:101EC00010F8000000070424243F240000F80888CC
:101ED000880808000019212020110E0000E0108859
:101EE00088180000000F112020110E00003808088B
:101EF000C83808000000003F00000000007088089B
:101F000008887000001C222121221C0000E010081B
:101F10000810E0000000312222110F00000000C074
:101F2000C000000000000030300000000000008011
:101F30000000000000008060000000000000804001
:101F4000201008000001020408102000404040401A
:101F5000404040000404040404040400000810206D
:101F600040800000002010080402010000704808B2
:101F70000808F0000000003036010000C030C8281A
:101F8000E810E0000718272423140B000000C038D5
:101F9000E0000000203C23020227382008F888884F
:101FA00088700000203F202020110E00C03008085B
:101FB00008083800071820202010080008F8080832
:101FC0000810E000203F202020100F0008F888882B
:101FD000E8081000203F20202320180008F88888F7
:101FE000E8081000203F200003000000C03008086F
:101FF0000838000007182020221E020008F80800F8
:102000000008F808203F210101213F20000808F8BE
:10201000080800000020203F2020000000000808E1
:10202000F8080800C08080807F00000008F888C0A1
:1020300028180800203F20012638200008F8080052
:1020400000000000203F20202020300008F8F80089
:10205000F8F80800203F003F003F200008F830C09B
:102060000008F808203F200007183F00E01008088B
:102070000810E0000F10202020100F0008F80808BA
:102080000808F000203F210101010000E0100808CD
:102090000810E0000F18242438504F0008F88888F2
:1020A00088887000203F2000030C302000708808D2
:1020B000080838000038202121221C00180808F8E0
:1020C000080818000000203F2000000008F8080061
:1020D0000008F808001F202020201F000878880032
:1020E00000C83808000007380E010000F80800F8A2
:1020F0000008F800033C0700073C0300081868804C
:102100008068180820302C03032C30200838C800C1
:10211000C83808000000203F200000001008080810
:10212000C83808002038262120201800000000FEB2
:10213000020202000000007F40404000000C30C05E
:1021400000000000000000010638C000000202028A
:10215000FE000000004040407F000000000004023C
:102160000202040000000000000000000000000067
:102170000000000080808080808080800002020457
:10218000000000000000000000000000000080804F
:10219000808000000019242222223F2008F80080BD
:1021A00080000000003F112020110E000000008080
:1021B00080800000000E112020201100000000800F
:1021C0008088F800000E112020103F200000808041
:1021D00080800000001F222222221300008080F055
:1021E000888888180020203F202000000000808080
:1021F00080808000006B94949493600008F80080C5
:1022000080800000203F210000203F20008098981F
:10221000000000000020203F20200000000000807F
:102220009898000000C08080807F000008F80000BF
:1022300080808000203F24022D302000000808F814
:10224000000000000020203F2020000080808080CF
:1022500080808000203F20003F20003F8080008061
:1022600080800000203F210000203F20000080806F
:1022700080800000001F202020201F008080008020
:102280008000000080FFA12020110E0000000080CF
:1022900080808000000E112020A0FF8080808000C0
:1022A0008080800020203F212000010000008080ED
:1022B000808080000033242424241900008080E0E2
:1022C000808000000000001F2020000080800000AF
:1022D00000808000001F202020103F208080800090
:1022E0000080808000010E300806010080800080A0
:1022F000008080800F300C030C300F0000808000C5
:10230000808080000020312E0E31200080808000EF
:102310000080808080818E7018060100008080809F
:10232000808080000021302C22213000000000003D
:10233000807C020200000000003F404000000000DE
:10234000FF00000000000000FF0000000002027C0F
:10235000800000000040403F000000000006010136
:10236000020204040000000000000000C8C8C828E1
:10237000282808C8C808080808080808080808081D
:1023800008480808C8C8C8083838080808080848AD
:10239000480808080808082808484848080808287D
:1023A000280808080808080808C8080808080808CD
:1023B00008480808080808083838080808080808FD
:1023C000080808080848082828084848080808088D
:1023D00008080808080808082808080808383808FD
:1023E00068080808080808280808080808080848AD
:1023F000084848080808080808484808080808085D
:1024000008086808080808080808080808280808CC
:1024100008080808C8C8080908080808083838085B
:1024200008280809080808080808082828080808CB
:10243000090808080808080808686808C9C8C8081A
:102440000808C8080808082829080808080808080B
:10245000080808084849080808080808080808087B
:10246000086868080828280808080808080868682C
:102470000808C8C8080808080808080828280828FC
:1024800008080808082828280808480838380808CC
:102490000808C80808080808C8C8C828282808C89C
:1024A000C80808080808080808080808484808086C
:1024B000C8C8C8083838080808080848480808087C
:1024C000080828280848484808080828280808084C
:1024D0000808080808C80808080C06024242060C4A
:1024E00008080808383808181810101010101818A4
:1024F000084808282808484808080808080808085C
:1025000008080828280808080838386868080808EB
:10251000080808280808080808080848084848085B
:1025200008080808084848080808080808686808EB
:10253000080808080808080828280808080808C81B
:10254000C8C80808080808082838380808280808EB
:10255000080808080808282828080808080808089B
:102560000808080808686808C8C8C8080808C8082B
:102570000808082828080808080C04060202060CA7
:102580004C480808080C04060202060C0C6868088F
:102590002828280808080808086868680808C8C8BB
:1025A000080808080808080828282828080808082B
:1025B0000828282808084828383808080808C808BB
:1025C0000880C0E070B0B0B098888E83838381812A
:1025D000938E8C888898B0F0C0E08000000080C0A6
:1025E000E0FEFFFDBFAF2F2F0E03070F1EFFBF1F23
:1025F0001F3F2F070001000000E08000000080C0A6
:10260000E0FEFFFDBFAF2F2F0E03070F1E3F7F5FC2
:102610003FFF8F07000100000000000000000000E5
:10262000000000000000000000E08000000080C00A
:10263000C0FEFFFDBFAF2F2F0E03070F1FFFBF1FF1
:102640003FFF8F07000100000000000000000000B5
:10265000000080808080808000F0C0808080C0E0AA
:10266000E0FFFFFE5FD71717070103070F7F5F0F1C
:102670001F7F470300000000000000000000000072
:102680000080C040C0C0C0C080F8E0C0C0C0E0F062
:10269000F0FFFFFF2F6B0B0B03000103073F2F071A
:1026A0000F3F2301000000000000000000000000B8
:1026B00000C0E0A0E0E0E0E0C07CF0E0E0E0F0F8A6
:1026C000F8FFFFFF1735050501000001031F170381
:1026D000071F1100000000000000000000000000C3
:1026E00000E0F0D0F0F0F0F0E03E78F0F0F0F8FC30
:1026F000FCFFFF7F0B1A020200000000010F0B011C
:10270000030F0800000000000000000000000000AF
:1027100000F0F8E8F8787878701F3C78F8F8FCFE5C
:10272000FEFF7F3F050D01010000000000070500CE
:10273000010704000000000000800000000000000D
:1027400000F8FCF4FCBCBCBC380F1E3C7CFCFE7FDB
:10275000FFFF3F1F02060000000000000003020010
:10276000000302000000000000C000000000008024
:1027700080FCFEFA7E5E5E5E1C070F1E3EFE7F3F03
:102780007FFF1F0F01030000000000000001010097
:10279000000101000000000000F0F000FFFF00F069
:1027A000F0030786FFFF060301F0E000FFFE80FC58
:1027B00000007CC0FEFF0080FC030706FFFF011045
:1027C00090909000FFFF030301F0E000FFFE80FC0B
:1027D00000FCFE00FFFF00F8F000FE80FEFFFE7828
:1027E000FC131706FFFF011010133704FFFF080F3B
:1027F00017101001FFFF031311F0E000FFFE00F0BF
:1028000000C000FFFE603C8000007CC0FEFF00F0C6
:10281000F8434786FFFF26A3A02704FFFF0008FF19
:10282000882F0000FFFF062321FCFFFFFFFFFF3F73
:102830003F3F3F0F1F3FFFFFFF3F3FFFFFFFFFFFF8
:10284000FCFFFFFFFFFF00007E7E7E787C7E7F7FA7
:102850007F7E0000FFFFFFFFFF3FFFFFFFFFFFFC4A
:10286000FCFCFCFCFCFCFCFCFCFCFCFFFFFFFFFF99
:102870003F0000000000000000E0F0303030300089
:1028800000F0F0C0C0F0F00000F0F0B0B0706000F8
:1028900000E0F03030F0E00000F0F030F0F030F028
:1028A000E000E0E0909090909000000000000000B8
:1028B0000000000000000000000000000000000018
:1028C0000080800000000000000000000000000008
:1028D00000000000000000000000000000000000F8
:1028E00000000000000000000000000000000000E8
:1028F000000000000000000000F3F73636F6E600A6
:10290000F0F707C1C13737F0C007C7E0303737E00D
:10291000C0030706F6F7B3B0B0F7E700F7F7000714
:10292000F7F003E3F43434F4E400000000000000A6
:10293000000000000000000010100C04141412111C
:1029400011111011121212141C10000000000000CE
:102950000000000000000000000000000000000077
:102960000000000000000000000000000000000067
:102970000000000000000000000F0F0C0C0F07000B
:102980000F0F000F0F00000F0F0003070C0C0C07B8
:10299000030000000F0F0101010E0E00070F0C0CC9
:1029A0000707000F0F00000F0F00000000000000DD
:1029B0000000000000000000000000000000000017
:1029C0000000000000000000000000000000000007
:1029D00000000000000080C060A0A0A09088888C4B
:1029E000889090B0A0C080000000000000000000AF
:1029F0000000000000000000000000000000404057
:102A0000004040404040404040400000F0FCFC9C02
:102A10009CFCFCFCFCFCFCFCFCFCFCF0F000000062
:102A200000000000000000000000000000000000A6
:102A30000000000000000000000000000000000096
:102A40000000800000000000000000000000000006
:102A50000000000000000000000000000000000076
:102A600000800000000000000000000000000000E6
:102A700000000000000000000000800000080000CE
:102A8000080808080808080800008080FFFFFFFF0A
:102A9000FFFF7F7F4F4F4F4F4F4F0F0F0F00000033
:102AA0000000000000000000000000000000000026
:102AB0000000000000000000000000008080000016
:102AC00000FFFFFFFF000080800000000000FEFE0E
:102AD000FE0000F0E00000000000F0F8F00000FF51
:102AE000FFFFFF0000808080000000000000000069
:102AF00000000000000000000000FFF8F8E0E080A7
:102B00008080C0E0F8F8F8FEFEFEFFFFFFFFFFFF49
:102B1000FFFF180838380000000000000000000027
:102B200000000000000000000000000000000000A5
:102B3000000000000000000000000000FFFF010096
:102B400000FFFFFFFF0000FFFF00FCFE0400FFFF8F
:102B5000FF0C0C8F8300F0F000809F3F7F7070FFB0
:102B6000FFFFFF000000FFFF00000000000000006A
:102B70000000000000000000000003070F1F1F7F7F
:102B80007FFFFFFFFFFFFFFFFFFFFFFFFF7F7F1FB5
:102B90001707000000000000000000000000000017
:102BA0000000000000000000000000000000000025
:102BB0000000000000000000000000000103070703
:102BC00007FFFFFFFF030301000003070E0CFFFFD9
:102BD000FF00001F3F20FFFF201F0F00000000FF2D
:102BE000FFFFFF03030301000000000000000000DE
:102BF00000828282020222222222020202828200B9
:102C0000000001FF9F9F070701010707FF80800069
:102C10000002020202C202020202028282828202D6
:102C200002323232220202020200000000000000E2
:102C30000000000000000000024242020202020204
:102C4000000F0F0F0F0001010111110101000F0F03
:102C50000F00013111000F0F000D0D011111101F98
:102C60001F1F1F10000D0101010101010D0D0100C9
:102C70000000000000000000000102030406070835
:102C800009000000A42C000800000020380000000B
:102C900028010008DC2C0008380000209007000004
:102CA000440100080000080080000000000000004F
:102CB0008000000080000000000000000000000014
:102CC0000000000000000000000000000100000003
:0C2CD00010000000000000000024F400D0
:04000005080000ED02
:00000001FF
